:060000000A128A110E280D
:10000800FE00030E83120313AD000A08AE000A12A5
:100018008A1120280A128A11112883120313A001B9
:10002800A101A201A301A401A501A601A701A8019C
:1000380083010A128A1171298C1E2328242830284A
:100048001A0888000D3083120313AC00FB30AB0094
:10005800AB0B2C28AC0B2C280B1C332834289C28E1
:1000680083120313061839283A284228861C3D288B
:100078003E2842280130AB002B08A807061C45285B
:1000880046284C28861849284A284C280130A802B6
:100098006430F0000030F1002808AB00AC012B08F8
:1000A800F2002C08F3000A128A11AF200A128A11F2
:1000B800710883120313A5007008A4000A30F90020
:1000C8000030FA000A30F0000030F1002808AB00D8
:1000D800AC012B08F2002C08F3000A128A11AF2099
:1000E8000A128A117108FC007008FB000A128A11B2
:1000F80016210A128A117A0883120313A3007908B9
:10010800A2000A30F9000030FA002808AB00AC0160
:100118002B08FB002C08FC000A128A1116210A126F
:100128008A117A0883120313A1007908A0000B1022
:100138000D3083120313AC00FB30AB00AB0BA228CD
:10014800AC0BA228831203132E088A002D0E8300FD
:10015800FE0E7E0E0900F601F11FB328B428BB2855
:10016800F009F109F00A0319F10AF601F60AF31F7A
:10017800BE28BF28C828F209F309F20A0319F30AAE
:100188000130F4007408F606F701F80170087104EC
:100198000319CF28D0280729F501F50ADE280130F0
:1001A8000310F00DF10DFF3E031DD4280130F400BB
:1001B8007408F507F11FE128E228D328013003105D
:1001C800F70DF80DFF3E031DE32871087302031DA8
:1001D800EF2870087202031CF228F328FA28700826
:1001E800F2027108031CF303F302771401300310C1
:1001F800F10CF00CFF3E031DFB280130F502031D36
:1002080006290729E228760803190B290C29112940
:10021800F709F809F70A0319F80A7808F1007708C6
:10022800F000080083120313AA01FC1F1C291D29D2
:100238002429FB09FC09FB0A0319FC0AAA01AA0ADA
:10024800FA1F272928292D29F909FA09F90A031972
:10025800FA0A79087A040319322933296229A9018B
:10026800A90A412901300310F90DFA0DFF3E031DBB
:1002780037290130FD007D08A907FA1F44294529BF
:1002880036297A087C02031D4B2979087B02031C56
:100298004E294F2955297908FB027A08031CFC03CB
:1002A800FC0201300310FA0CF90CFF3E031D56291D
:1002B8000130A902031D6129622945292A08031969
:1002C800662967296C29FB09FC09FB0A0319FC0A42
:1002D8007C08FA007B08F90008000A128A11BA2182
:1002E8000A128A110A128A11D8210A128A11831253
:1002F80003132408303E99000D3083120313B00015
:10030800FB30AF00AF0B8629B00B8629831203138D
:100318002208303E99000D3083120313B000FB30E1
:10032800AF00AF0B9529B00B952983120313200852
:10033800303E99000D3083120313B000FB30AF003C
:10034800AF0BA429B00BA4290A3083120313990018
:100358000D3083120313B000FB30AF00AF0BB2298E
:10036800B00BB2297B290A128A110E2883160317AB
:1003780089010330831603138600880189018312DB
:100388000313850188018901831603138113033040
:1003980095000330960070308F040F148C168B175D
:1003A8000B170B108B1508000C30831603139900DC
:1003B8009A0118118316031787118316031318124D
:1003C80083120313981783160313981683120313C3
:0803D8000C1218168C1208002B
:08400000FF3FFF3FFF3FFF3FC0
:04400E00D420FF3F7C
:00000001FF
